:100000004EC068C067C066C065C064C063C062C0DF
:1000100061C0E3CA5FC05EC05DC05CC08AC55AC033
:1000200059C058C057C005A84CCDB2D44EB93836C7
:10003000A9020C50B9918688083CA6AAAA2ABE003B
:100040000000803F08000000BE922449123EABAA87
:10005000AA2ABECDCCCC4C3E00000080BEABAAAAE2
:10006000AA3E00000000BF000000803F000000002A
:1000700000084178D3BB4387D1133D190E3CC3BD63
:100080004282AD2B3E68EC8276BED98FE1A93E4C10
:1000900080EFFFBE01C4FF7F3F000000000011247D
:1000A0001FBECFE5D4E0DEBFCDBF11E0A0E6B0E0DB
:1000B000E2EBFCE102C005900D92A838B107D9F738
:1000C00023E0A8E8B1E001C01D92A638B207E1F72D
:1000D00043D8EDCD6BCA3D0A850A5E0BC60CB80E3F
:1000E000311129149A177C1BC41F68245C29962E91
:1000F0000634A139583F1E45E34A9A503556A65B4F
:10010000DF60D465786AC06EA17212760B79837B4A
:10011000757DDD7EB67FFE7FB67FDD7E757D837B60
:100120000B791276A172C06E786AD465DF60A65B27
:1001300035569A50E34A1E45583FA1390634962E4B
:100140005C296824C41F7C1B9A1729143111B80E2E
:10015000C60C5E0B850AFF7F0000617F8B0C897DDA
:10016000F8187C7A27254076FB30E170563C6C6AA3
:100170001C47F1623351815A815A3351F1621C4755
:100180006C6A563CE170FB30407627257C7AF81883
:10019000897D8B0C617F0000FE7F75F3617F08E72E
:1001A000897DD9DA7C7A05CF4076AAC3E170E4B8BC
:1001B0006C6ACDAEF1627FA5815A0F9D3351949543
:1001C0001C471F8F563CC089FB30848527257782CA
:1001D000F8189F808B0C000080004000C0002000B9
:1001E000A0006000E000100090005000D00030003F
:1001F000B0007000F000080088004800C800280027
:10020000A8006800E800180098005800D8003800DE
:10021000B8007800F8003F922F921F930F93DF935E
:10022000CF93DC01EB019927E6EDF0E000E410E06C
:10023000259135914D915D91B503B0012C031001CD
:10024000691FBC03790B300C611D791FDA03790B30
:10025000300C611D791F69937993699379930150EB
:10026000104031F7CF91DF910F911F912F903F9068
:10027000112408953F922F925F924F927F926F9236
:100280009F928F92BF92AF92DF92CF92FF92EF92A6
:100290001F930F93DF93CF93FC0181E090E0A0E2E6
:1002A000B0E004E0809F6001909FD00C7C019F93A0
:1002B0008F93EF01A09FC00DD11DB09FD00DFF9374
:1002C000EF93BB24AA2499270081118115950795E6
:1002D0006881798175956795A801061B170B460FF4
:1002E000571F4193519320813181359527956A811C
:1002F0007B8175956795A901261B370B460F571F04
:10030000419351930F01E6E5F1E0EA0DFB1D4591A4
:10031000559165917591F001950320010C03100131
:10032000491E9C03590A300C411C591ED803590A16
:10033000300C411C591EB70340012E033001891EA9
:10034000BE03990A700C811C991EFA03990A700C5D
:10035000811C991E260C371C481C591C4992599225
:10036000B50320012C031001491EBC03590A300CAF
:10037000411C591EDA03590A300C411C591E9703BF
:1003800040010E033001891E9E03990A700C811CE6
:10039000991EF803990A700C811C991E26183708BB
:1003A0004808590849925992AC0CBD1CA7FE8CCF45
:1003B00004E0A09FC00DD11DE00DF11DB09FD00D38
:1003C000F00D81E0E81AF90A09F07BCFEF91FF9177
:1003D0008F919F91880F991FB695A795109609F058
:1003E00060CFCF91DF910F911F91EF90FF90CF9051
:1003F000DF90AF90BF908F909F906F907F904F90C5
:100400005F902F903F9008953F922F925F924F926E
:100410007F926F929F928F92BF92AF921F930F9392
:10042000DF93CF935C01EB01E6EDF1E0992700E269
:1004300010E0A591B591AA0DBB1D2D913D914D9157
:100440005D91B30320012A031001491EBA03590A22
:10045000300C411C591EBA03590A300C411C591E5C
:10046000D50340014C033001891EDC03990A700C4E
:10047000811C991EDC03990A700C811C991E260CA4
:10048000371C481C591C662477248824992421E0B1
:1004900030E04427552770E1220C331C441C551CC6
:1004A000661C771C881C991C220C331C441C551C90
:1004B000661C771C881C991C2AF4620E731E841E0D
:1004C000951E04C0621A730A840A950A220F331F0C
:1004D000441F287F256097FC22507A95E9F64695BF
:1004E0003795279546953795279529933993015048
:1004F000104009F09ECFCF91DF910F911F91AF90E7
:10050000BF908F909F906F907F904F905F902F90B3
:100510003F9011240895AC019927D703F0014E03B1
:10052000D001E91FDE03F90BB00DE11DF91FFC033B
:10053000F90BB00DE11DF91FCF011124089540E022
:10054000461729F1242F269526952695FC01E20FC2
:10055000F11D208130E0542F577002C0359527954A
:100560005A95E2F720FF02C0939A01C093980000C9
:1005700024E02A95F1F7949A000024E02A95F1F7F7
:100580009498000024E02A95F1F74F5FD9CF0895A1
:10059000CF93DF931F92CDB7DEB79298000084E02F
:1005A0008A95F1F787E6898368E0CE010196C7DF77
:1005B000929A000084E08A95F1F70F90DF91CF9135
:1005C00008959298000084E08A95F1F784E68A9570
:1005D000F1F70895CF93DF9300D000D0CDB7DEB709
:1005E00069837A838B839C83D3DF68E1CE01019694
:1005F000A6DFE7DF0F900F900F900F90DF91CF9164
:100600000895962F60E070E06061692B837090E040
:10061000A0E0B0E031E1880F991FAA1FBB1F3A95F7
:10062000D1F7482B592B6A2B7B2BCB01BA01D2CFA8
:10063000262F8F7390E0A0E0B0E06627782F892FF7
:100640009A2F80642F70822BC5CF90E0A0E0B0E09D
:100650006627782F892F9A2F8065BCCF462F50E0D0
:1006600060E070E060668F73582BCB01BA01B2CFA7
:10067000DF92EF92FF920F931F93CF93DF93CDB74B
:10068000DEB728970FB6F894DEBF0FBECDBFF02FB0
:10069000D22EE32EF42EB52FE62FA72FE068282FB9
:1006A00030E040E050E060E070E080E090E008E2A0
:1006B000D2D7F22BF983132B1A83D42ADB82E52AB3
:1006C000EC82F62AFD82B72BBE83E82BEF83A92BA1
:1006D000A8875EDF68E3CE01019631DF72DF2896DE
:1006E0000FB6F894DEBF0FBECDBFDF91CF911F9143
:1006F0000F91FF90EF90DF900895CF938C9A8B9A93
:100700008A9A9498000093980000929800006FEFE6
:100710007FEF88EB90E05EDFC0E060E28C2F9EDF31
:10072000CF5FC034D1F760E070E080E490E052DF4A
:1007300060E070E08AE390E04DDF60E070E880E523
:1007400090E0CF9147CFFF920F931F93CF93DF930A
:10075000162F082FEC01F82EF60E69918F2D8C1BA9
:100760007DDF8C2F801B8117C0F3DF91CF911F910C
:100770000F91FF9008950F931F93CF93DF938C01F8
:10078000EC0109900020E9F72197C81BD90B60E024
:1007900080E04EDF6C2FC801DF91CF911F910F9148
:1007A000D2CF0F931F93CF93DF938C01EC0109906D
:1007B0000020E9F72197C81BD90B2AE030E02C1B59
:1007C00031093695279560E080E4821B31DF6C2F7C
:1007D000C801DF91CF911F910F91B5CFCF9360E00A
:1007E00080E026DFC0E060E28C2F38DFCF5FCA30C8
:1007F000D1F7CF9108957F928F929F92AF92BF923F
:10080000CF92DF92EF92FF920F931F93CF93DF93DC
:10081000CEE1D0E0712C812C912CA12CB12CC12CDB
:10082000D12CE12CF12C2FE130E040E050E060E0F1
:1008300070E080E090E00C2F0ED7722A832A942A71
:10084000A52AB62AC72AD82AE92A072D182D292D24
:100850003A2D4B2D5C2D6D2D7E2D8F2D09DFF394C0
:10086000259787E0F812DFCFDF91CF911F910F918D
:10087000FF90EF90DF90CF90BF90AF909F908F90C0
:100880007F9008952F923F924F925F926F927F9246
:100890008F929F92AF92BF92CF92DF92EF92FF9290
:1008A0000F931F93CF93DF93CDB7DEB727970FB684
:1008B000F894DEBF0FBECDBF782E04E010E01C839D
:1008C0000B83812C912CA12CB12CC12CD12CE12C8F
:1008D000F12C94E0692E362C1B81311A21E030E096
:1008E00040E050E060E070E080E090E0772061F16F
:1008F000012FB1D6822A932AA42AB52AC62AD72A3A
:10090000E82AF92A21E030E040E050E060E070E0C1
:1009100080E090E00B811C810B5F1F4F9CD6822AE8
:10092000932AA42AB52AC62AD72AE82AF92A21E036
:1009300030E040E050E060E070E080E090E00B816B
:100940001C81065F1F4F39C00B811C810C5E1F4F3D
:1009500082D6222E432E542E5F836D837E83F82F02
:10096000E92F21E030E040E050E060E070E080E01E
:1009700090E00B811C81075E1F4F6DD6222A432A0F
:10098000542AAF81A52BBD81B62B1E81172BF82BC6
:10099000E92B82289428A528BA2ACB2AD12AEF2A23
:1009A000FE2A21E030E040E050E060E070E080E0CE
:1009B00090E00B811C81025E1F4F4DD6822A932A44
:1009C000A42AB52AC62AD72AE82AF92A8401950139
:1009D000A601B701832D4CDE8B819C8101979C83FE
:1009E0008B83019609F077CF27960FB6F894DEBF78
:1009F0000FBECDBFDF91CF911F910F91FF90EF9070
:100A0000DF90CF90BF90AF909F908F907F906F902E
:100A10005F904F903F902F9008950F931F9303EC9A
:100A20001CE020E030E040E050E060E070E080E07A
:100A30001FDE00E010E020E33CEC40E050E060E02E
:100A400070E081E015DE03EC1CE020E33CEC40E0CC
:100A500050E060E070E082E00BDE1F910F9108959E
:100A6000FF920F931F93CF93DF9300D0CDB7DEB7E4
:100A7000182FF62E91E00AE0191720F0F91630F43D
:100A800061E007C0F91620F460E203C062E001C033
:100A900060E0442319F0802F891B01C0892F4A830D
:100AA0009983DCDD99819F5F4A819B3029F70F9004
:100AB0000F90DF91CF911F910F91FF900895EF92CA
:100AC000FF920F931F93CF93DF93C82F60E080E0D6
:100AD000AFDD8C2F65E0B3D5F82E082F10E00F5F47
:100AE0001F4FEE24EA94E90EC0E0D0E08C2FFC16F4
:100AF00010F064E008C00C171D0719F46E2D802F4C
:100B000002C060E28C2FAADD2196CA30D10571F7B0
:100B1000DF91CF911F910F91FF90EF900895673073
:100B200008F066E0982F8A3008F099E089E0891B88
:100B300095CD1F920F920FB60F9211242F933F93D2
:100B40008F939F93EF93FF9320914D0320347CF478
:100B500084B135B1E22FEE0FFF0BE353FD4F90E070
:100B6000932B918380832F5F20934D03369AFF91BF
:100B7000EF919F918F913F912F910F900FBE0F900A
:100B80001F90189587B1807187B987B1806C87B93C
:100B9000379A359886B18D6486B908958F929F9261
:100BA000AF92BF92CF92DF92EF92FF920F931F937B
:100BB000CF93DF933699D4C080918801811113C0FF
:100BC000C7B1C77087B1807F87B997B181E08C0FBB
:100BD0008170892B87B9EDECF2E060E070E0CB0129
:100BE000A0E0B2E057C06DEC71E08DEC92E013DB59
:100BF0008DEC91E03FDB6DE871E08DEC91E004DC81
:100C00000FE811E0C1E0D0E0BE01882777FD8095B4
:100C1000982F38D623EC35EF48EC50E443D720E04A
:100C200030E048EF51E498D594D59B01AC0160E0E9
:100C300070E080E89FE328D520E030E040E05FE30B
:100C400031D76B017C01F8016081718180E090E017
:100C500017D69B01AC01C701B60124D7E5D5F80131
:100C6000619371938F012196C032D10569F6A8CFA7
:100C7000AD01421B530B9A01229FA001239F500DEF
:100C8000500D1124640F751F811D911D53E0ED342B
:100C9000F50741F021913191211542E0340744F3E9
:100CA0003250EACFC1112CC0EBD520E030E040E853
:100CB0005CE3F8D65ED74B015C01609189017091CD
:100CC0008A0180E090E0DCD56B017C019B01AC01E6
:100CD000C501B401D9D420E030E04FEA53E4E2D6B4
:100CE00020E030E04AE754E437D59B01AC01C7016E
:100CF000B601CBD499D570938A01609389012DC038
:100D0000C13059F5BDD520E030E040E85CE3CAD6FB
:100D100030D74B015C0160918B0170918C0180E0B8
:100D200090E0AED56B017C019B01AC01C501B40123
:100D3000ABD420E030E04FEA53E4B4D620E030E01A
:100D40004AE754E409D59B01AC01C701B6019DD423
:100D50006BD570938C0160938B0110924D03369A82
:100D6000DF91CF911F910F91FF90EF90DF90CF9087
:100D7000BF90AF909F908F90089520E4FC01208356
:100D80008DE891E00895089589E891E008958093B1
:100D900088010895CF93DF93EC0120DD2097C1F007
:100DA0008881E981FA810480F581E02D93E0899FB3
:100DB000E00DF11D1124E081E13150F4F0E0EE0F7F
:100DC000FF1FE05AFF4F80819181DF91CF91E9CCE5
:100DD000DF91CF910895813021F4FA0180819181D2
:100DE000089580E090E00895FB01DB0123E011927B
:100DF000118A168613961D921D921D921C921697AB
:100E0000215014962111F3CFFC0152834183FA0142
:100E100011821082FC011082BDCF4F925F926F92BF
:100E20007F928F929F92AF92BF92CF92DF92EF927A
:100E3000FF920F931F93CF93DF93409182035091C2
:100E4000830360918403709185037C01FC01A0E021
:100E5000B0E0CC24C394E701D9907E01EC01CA0F25
:100E6000DB1FDD20E1F0038114812581368101152E
:100E700011052105310529F4438354836583768365
:100E800012C02A013B01401A510A620A730A21E585
:100E9000421623EC520661047104F0F404C013827C
:100EA000148215821682D12C1A8ADF861196349606
:100EB000A330B10581F6DF91CF911F910F91FF9083
:100EC000EF90DF90CF90BF90AF909F908F907F90EA
:100ED0006F905F904F9008952F852111E5CFCA8ABA
:100EE000E4CFFC016115710571F07283618310829A
:100EF00081E08383DB011296ED91FC91139730978B
:100F000011F082E009940895CF93DF93EC01FB0187
:100F10006881662329F08489882311F0615010C00C
:100F200049815A81862F90E00196DA0116962C911C
:100F300030E08217930744F48289882329F06F5F99
:100F4000688381E08B8317C083898823A1F0DA014D
:100F50001496ED91FC911597B3E06B9FE00DF11D98
:100F600011240180F281E02D309729F081E009956C
:100F7000BC01CE01B6DF8B818823C1F01B82CE017C
:100F800009DF49815A816881DA011496ED91FC915B
:100F90001597B3E06B9FE00DF11D11240180F281E4
:100FA000E02D309729F080E0099502C080E001C073
:100FB00081E0DF91CF910895CF93DF93EC0180E042
:100FC00090E060D6888381E090E05CD6898382E0FF
:100FD00090E058D68A83DF91CF910895CF93DF9325
:100FE000EC01688180E090E055D6698181E090E075
:100FF00051D66A8182E090E0DF91CF914BC6843078
:1010000030F4E82FF0E0E958FE4F8081089580E049
:101010000895813019F487ED90E0089580E090E024
:101020000895813019F481EC90E0089580E090E01B
:101030000895813019F48EEA90E0089580E090E000
:101040000895813019F48EE990E0089580E090E0F1
:1010500008951F93CF93DF9300D01F92CDB7DEB7D3
:10106000182F813059F46093560384E593E04A8346
:101070005B836983B3DF69815B814A81812F0F9034
:101080000F900F90DF91CF911F91A5CE823041F448
:10109000809154039091C700891710F480936C03DA
:1010A0000895823041F4809155039091FD00891795
:1010B00010F480936C03089581110AC06093550366
:1010C000862F9DDF8093780384E593E087DF05C05A
:1010D000813019F487EE90E0089580E090E0089563
:1010E000CF93C82F853060F4E82FF0E0E558FE4F2D
:1010F0008081ABDAC093540384E593E0CF916ECF47
:10110000CF910895811167CE862FEADF80E090E0CD
:1011100008958D9A8E9A8F9AB898B998BA98C09A6D
:10112000C19AC29AEADA51D22DDD2FE387E79BE11B
:10113000215080409040E1F700C0000077D284E564
:1011400093E03ADF47EF50E067E573E08CE693E029
:101150004BDE80915403C4CFCF93DF9300D0CDB743
:10116000DEB7F8942FD2809379032FEB87E299E0D2
:10117000215080409040E1F700C00000CADF789421
:10118000B09903C062E870E002C067EF70E08CE6DF
:1011900093E0A7DE80E090E0A6E1B3E480937E03D5
:1011A00090937F03A0938003B09381038BE794E136
:1011B000AEE2B2E480937A0390937B03A0937C0326
:1011C000B0937D0300E011E0809082039090830350
:1011D000A0908403B090850386B3817081278093AB
:1011E000580386B38695817081278093590386B30F
:1011F00082FB882780F981278093570387E593E056
:101200000CDECCDC67E573E08CE693E07DDE2091BC
:101210006D0330916E03275F304009F07BC1409130
:101220008203509183036091840370918503882326
:1012300079F010925303405C5D4B604F7F4F4093B9
:101240004F0350935003609351037093520362C154
:1012500080914F0390915003A0915103B09152039C
:1012600084179507A607B70708F054C19091560355
:10127000913009F07DC080915303811105C09A839C
:1012800086DD9A819093530380914E03812780934A
:101290004E03F8DA79DD7C01FC0160817181611512
:1012A000710579F180914E03882359F180E090E037
:1012B000E7D220917E0330917F03409180035091CB
:1012C00081034AD2A4D340907A0350907B0360906C
:1012D0007C0370907D0320E030E040EA51E4E2D3EB
:1012E0009B01AC015F77C301B201CED1A301920192
:1012F00033D220E030E048E452E4D4D395D2862FB4
:1013000001C080E0F701628173816115710571F19F
:1013100090914E0391112AC080E090E0B1D22091CB
:101320007E0330917F03409180035091810314D25A
:101330006ED3C0907A03D0907B03E0907C03F09052
:101340007D0320E030E040EA51E4ACD39B01AC01E6
:101350005F77C701B60198D1A7019601FDD120E0C2
:1013600030E048E452E49ED35FD2862FA8DBD2C09F
:10137000923009F071C080915303811104C007DDE0
:101380004CDB1093530300DD7C01FC016081718113
:101390006115710559F180E090E072D220917E03D1
:1013A00030917F034091800350918103D5D12FD399
:1013B00040907A0350907B0360907C0370907D0393
:1013C00020E030E040EA51E46DD39B01AC015F774F
:1013D000C301B20159D1A3019201BED120E030E096
:1013E00040E251E45FD320D2762E01C0712CF70188
:1013F000628173816115710551F180E090E040D206
:1014000020917E0330917F034091800350918103AE
:10141000A3D1FDD2C0907A03D0907B03E0907C03EF
:10142000F0907D0320E030E040EA51E43BD39B01A3
:10143000AC015F77C701B60127D1A70196018CD116
:1014400020E030E040E251E42DD3EED101C060E075
:1014500041E0872D05DB5EC091115CC08091530394
:10146000811105C081E093DCC6D91093530360E07D
:1014700080E0DED8CE01019680DCFC011182108272
:101480007C01D12CF7016281738180819181680F89
:10149000791F84819581680F791F61157105F9F0B5
:1014A00080E090E0EDD120917E0330917F03409168
:1014B00080035091810350D1AAD220E030E040EA6D
:1014C00051E4F0D29B01AC015F7760917A03709197
:1014D0007B0380917C0390917D03D6D003C060E0B4
:1014E00070E0CB0120917A0330917B0340917C0323
:1014F00050917D0331D120E030E040EC50E4D2D275
:1015000093D18D2D0CDBD394F6E0EF0EF11C2AE085
:10151000D212B8CF8091780380FF02C0959A01C0A3
:10152000959881FF02C0969A01C0969882FF02C0EA
:10153000979A01C0979840918203509183036091DC
:10154000840370918503DB01CA0188199909AA09EE
:10155000BB098093700390937103A0937203B093BF
:101560007303C0907403D0907503E0907603F090FD
:101570007703C816D906EA06FB0640F48093740385
:1015800090937503A0937603B093770301111CCE5B
:101590004132514A6105710508F416CE4FEF5FEFF5
:1015A00061E083E02ED8EFDB01E00ECE1F920F92B8
:1015B0000FB60F92112480E891E0DDD8FFCFE0E074
:1015C000F0E0099484B714BE089582E083BF89E6F1
:1015D00082BF89B7816089BF08951F920F920FB6AD
:1015E0000F9211248F939F93AF93BF9380918203A7
:1015F00090918303A0918403B09185038C599F4FF0
:10160000AF4FBF4F8093820390938303A0938403D3
:10161000B093850382B7875982BFBF91AF919F91E5
:101620008F910F900FBE0F901F90189510BC8CE0FB
:1016300089B9599A86E080BD88E18AB90895991BD5
:1016400079E004C0991F961708F0961B881F7A95B9
:10165000C9F7809508950F93083090F0982F872F41
:10166000762F652F542F432F322F22270850F4CF87
:10167000220F331F441F551F661F771F881F991F96
:101680000A95B2F70F9108955058BB27AA270ED09C
:1016900073C13CD130F041D120F031F49F3F11F4BF
:1016A0001EF431C10EF4E095E7FB27C1E92F86D186
:1016B00080F3BA17620773078407950718F071F46F
:1016C0009EF59EC10EF4E0950B2EBA2FA02D0B01B6
:1016D000B90190010C01CA01A0011124FF27591B77
:1016E00099F0593F50F4503E68F11A16F040A22F7D
:1016F000232F342F4427585FF3CF469537952795EE
:10170000A795F0405395C9F77EF41F16BA0B620BEC
:10171000730B840BBAF09150A1F0FF0FBB1F661F33
:10172000771F881FC2F70EC0BA0F621F731F841F76
:1017300048F4879577956795B795F7959E3F08F09C
:10174000B3CF9395880F08F09927EE0F979587955B
:101750000895EBD0E39521C10CD00EC1DED040F04E
:10176000D5D030F021F45F3F19F0C7C0511149C105
:10177000CAC024D198F39923C9F35523B1F3951B1B
:10178000550BBB27AA2762177307840738F09F5FA2
:101790005F4F220F331F441FAA1FA9F333D00E2E11
:1017A0003AF0E0E830D091505040E695001CCAF77E
:1017B00029D0FE2F27D0660F771F881FBB1F261743
:1017C00037074807AB07B0E809F0BB0B802DBF0116
:1017D000FF2793585F4F2AF09E3F510568F08DC058
:1017E00010C15F3FECF3983EDCF3869577956795E3
:1017F000B795F7959F5FC9F7880F911D96958795C7
:1018000097F90895E1E0660F771F881FBB1F6217E5
:1018100073078407BA0720F0621B730B840BBA0BA3
:10182000EE1F88F7E0950895D1D088F09F5790F08B
:10183000B92F9927B751A0F0D1F0660F771F881FF5
:10184000991F1AF0BA95C9F712C0B13081F0D8D0FB
:10185000B1E00895D5C0672F782F8827B85F39F099
:10186000B93FCCF3869577956795B395D9F73EF454
:1018700090958095709561957F4F8F4F9F4F0895FC
:10188000E89409C097FB3EF490958095709561951A
:101890007F4F8F4F9F4F9923A9F0F92F96E9BB27D0
:1018A0009395F695879577956795B795F111F8CF4C
:1018B000FAF4BB0F11F460FF1BC06F5F7F4F8F4FB7
:1018C0009F4F16C0882311F096E911C0772321F0AD
:1018D0009EE8872F762F05C0662371F096E8862F45
:1018E00070E060E02AF09A95660F771F881FDAF79C
:1018F000880F9695879597F9089597F99F6780E8DF
:1019000070E060E008959FEF80EC089500240A9451
:101910001616170618060906089500240A941216CA
:101920001306140605060895EECF50D0E8F3E894A8
:10193000E0E0BB279F57F0F02AED3FE049EC06C0FE
:10194000EE0FBB0F661F771F881F28F0B23A6207A1
:101950007307840728F0B25A620B730B840BE3956C
:101960009A9572F7803830F49A95BB0F661F771FEF
:10197000881FD2F790483DC1092E0394000C11F442
:10198000882352F0BB0F40F4BF2B11F460FF04C05A
:101990006F5F7F4F8F4F9F4F0895EF93E0FF06C01B
:1019A000A2EA2AED3FE049EC5FEB80DEE5DF0F9035
:1019B000039401FC9058E6E2F0E053C157FD9058C3
:1019C000440F551F59F05F3F71F04795880F97FB03
:1019D000991F61F09F3F79F08795089512161306BD
:1019E0001406551FF2CF4695F1DF08C016161706EC
:1019F0001806991FF1CF8695710561050894089521
:101A0000E894BB2766277727CB0197F908950AD07A
:101A100029ED3BE54EED5EE345C00EF0E8C073CF27
:101A200068946BCFD3DFC8F39923D1F3C6F3DF9368
:101A3000CF931F930F93FF92C92FDD2788232AF09E
:101A40002197660F771F881FDAF720E030E040E823
:101A50005FEB9FE3883920F0803E30F021968F774E
:101A600014DEE4E4F0E003C010DEE1E7F0E0D4D0FF
:101A70008B01BE01EC01FB2E6F5771097595771F25
:101A8000880B990BFFDE28E132E741E35FE316D0D4
:101A9000AF2D9801AE01FF900F911F91CF91DF9173
:101AA00005DE6ACF0BD068CF31DF28F036DF18F0C3
:101AB000952309F022CF27CF1124A3CF7FDFA0F3F6
:101AC000959FD1F3950F50E0551F629FF001729FD3
:101AD000BB27F00DB11D639FAA27F00DB11DAA1FF2
:101AE000649F6627B00DA11D661F829F2227B00D3F
:101AF000A11D621F739FB00DA11D621F839FA00DCA
:101B0000611D221F749F3327A00D611D231F849F19
:101B1000600D211D822F762F6A2F11249F57504070
:101B20008AF0E1F088234AF0EE0FFF1FBB1F661F0B
:101B3000771F881F91505040A9F79E3F510570F0C4
:101B4000DCCE5FCF5F3FECF3983EDCF38695779574
:101B50006795B795F795E7959F5FC1F7FE2B880FBF
:101B6000911D9695879597F9089511F40EF4CBCEB3
:101B70003EC02CDFD0F39923D9F3CEF39F57550BFA
:101B800087FF43D00024A0E640EA90018058569594
:101B9000979528F4805C660F771F881F20F0261722
:101BA0003707480730F4621B730B840B2029312957
:101BB0004A2BA69517940794202531254A2758F7D4
:101BC000660F771F881F20F026173707480730F465
:101BD000620B730B840B200D311D411DA09581F705
:101BE000B901842F9158880F9695879508959F3F46
:101BF00031F0915020F4879577956795B795880FC8
:101C0000911D9695879597F9089591505040660FCC
:101C1000771F881FD2F70895DF93CF931F930F93F9
:101C2000FF92EF92DF927B018C01689405C0DA2E5F
:101C3000EF0144DFFE01E894A5912591359145918E
:101C40005591AEF3EF0132DDFE019701A801DA9460
:101C500079F7DF90EF90FF900F911F91CF91DF9177
:101C600008959F938F937F936F93FF93EF939B01BF
:101C7000AC0118DFEF91FF91CFDF2F913F914F9192
:101C80005F9110CFE199FECF9FBB8EBBE09A992761
:101C90008DB30895262FE199FECF9FBB8EBB2DBB40
:101CA0000FB6F894E29AE19A0FBE01960895F8945F
:021CB000FFCF64
:101CB2000A010E01110117011C0124012C0130013E
:101CC2003901410147014C0157015D0164016A017B
:101CD20071019E000000890007110000110000112F
:101CE20000001100001100001100000AEB06E700DD
:101CF2000000A500031000000DDF0A0AEB06D70062
:101D02000000B500040629080729080829080AEB7B
:101D120006D7004608C800050F82080F82080F8206
:101D2200080F82080F8208F7000000DE00030C197A
:101D3200080B11080AEB06F7000000EE0003050984
:101D4200080921080AEB0600005108FE0004005CA5
:101D520008025C08015C08035C08415558004344D2
:101D620000524144494F005441504500536F75722F
:101D720063657300446973706C6179004646540070
:101D820056552D486F72697A0056552D56657274F4
:101D920000546F6F6C73004241434B00427269679B
:101DA20068746E657373004D657465720052656286
:101DB2006F6F740044656275670054655374212A1D
:101DC20000302E312E300004010206306090C0F047
:081DD2006E6F204953522100FD
:00000001FF
